{
  "contractName": "GrainSafety",
  "abi": [
    {
      "anonymous": false,
      "inputs": [
        {
          "indexed": false,
          "internalType": "uint256",
          "name": "batchId",
          "type": "uint256"
        },
        {
          "indexed": false,
          "internalType": "bool",
          "name": "safetyCompliance",
          "type": "bool"
        }
      ],
      "name": "ComplianceUpdated",
      "type": "event"
    },
    {
      "anonymous": false,
      "inputs": [
        {
          "indexed": false,
          "internalType": "uint256",
          "name": "batchId",
          "type": "uint256"
        },
        {
          "indexed": false,
          "internalType": "address",
          "name": "farmer",
          "type": "address"
        }
      ],
      "name": "NewBatchAdded",
      "type": "event"
    },
    {
      "inputs": [
        {
          "internalType": "uint256",
          "name": "",
          "type": "uint256"
        }
      ],
      "name": "grainBatches",
      "outputs": [
        {
          "internalType": "uint256",
          "name": "batchId",
          "type": "uint256"
        },
        {
          "internalType": "string",
          "name": "grainType",
          "type": "string"
        },
        {
          "internalType": "uint256",
          "name": "weight",
          "type": "uint256"
        },
        {
          "internalType": "uint256",
          "name": "temperature",
          "type": "uint256"
        },
        {
          "internalType": "uint256",
          "name": "humidity",
          "type": "uint256"
        },
        {
          "internalType": "address",
          "name": "farmer",
          "type": "address"
        },
        {
          "internalType": "bool",
          "name": "safetyCompliance",
          "type": "bool"
        }
      ],
      "stateMutability": "view",
      "type": "function",
      "constant": true
    },
    {
      "inputs": [],
      "name": "nextBatchId",
      "outputs": [
        {
          "internalType": "uint256",
          "name": "",
          "type": "uint256"
        }
      ],
      "stateMutability": "view",
      "type": "function",
      "constant": true
    },
    {
      "inputs": [
        {
          "internalType": "string",
          "name": "grainType",
          "type": "string"
        },
        {
          "internalType": "uint256",
          "name": "weight",
          "type": "uint256"
        },
        {
          "internalType": "uint256",
          "name": "temperature",
          "type": "uint256"
        },
        {
          "internalType": "uint256",
          "name": "humidity",
          "type": "uint256"
        }
      ],
      "name": "addGrainBatch",
      "outputs": [],
      "stateMutability": "nonpayable",
      "type": "function"
    },
    {
      "inputs": [
        {
          "internalType": "uint256",
          "name": "batchId",
          "type": "uint256"
        },
        {
          "internalType": "uint256",
          "name": "newTemperature",
          "type": "uint256"
        },
        {
          "internalType": "uint256",
          "name": "newHumidity",
          "type": "uint256"
        }
      ],
      "name": "updateCompliance",
      "outputs": [],
      "stateMutability": "nonpayable",
      "type": "function"
    },
    {
      "inputs": [
        {
          "internalType": "uint256",
          "name": "batchId",
          "type": "uint256"
        }
      ],
      "name": "getBatchDetails",
      "outputs": [
        {
          "components": [
            {
              "internalType": "uint256",
              "name": "batchId",
              "type": "uint256"
            },
            {
              "internalType": "string",
              "name": "grainType",
              "type": "string"
            },
            {
              "internalType": "uint256",
              "name": "weight",
              "type": "uint256"
            },
            {
              "internalType": "uint256",
              "name": "temperature",
              "type": "uint256"
            },
            {
              "internalType": "uint256",
              "name": "humidity",
              "type": "uint256"
            },
            {
              "internalType": "address",
              "name": "farmer",
              "type": "address"
            },
            {
              "internalType": "bool",
              "name": "safetyCompliance",
              "type": "bool"
            }
          ],
          "internalType": "struct GrainSafety.GrainBatch",
          "name": "",
          "type": "tuple"
        }
      ],
      "stateMutability": "view",
      "type": "function",
      "constant": true
    }
  ],
  "bytecode": "0x608060405234801561001057600080fd5b50610e96806100206000396000f3fe608060405234801561001057600080fd5b50600436106100575760003560e01c8063101ca0661461005c5780638462a7f81461009257806388dc5f71146100b05780639d47dcc0146100cc578063e83d0606146100fc575b600080fd5b61007660048036038101906100719190610873565b610118565b6040516100899796959493929190610ba2565b60405180910390f35b61009a61020f565b6040516100a79190610b35565b60405180910390f35b6100ca60048036038101906100c5919061089c565b610215565b005b6100e660048036038101906100e19190610873565b610307565b6040516100f39190610b13565b60405180910390f35b610116600480360381019061011191906107f8565b6104a2565b005b600060205280600052604060002060009150905080600001549080600101805461014190610d30565b80601f016020809104026020016040519081016040528092919081815260200182805461016d90610d30565b80156101ba5780601f1061018f576101008083540402835291602001916101ba565b820191906000526020600020905b81548152906001019060200180831161019d57829003601f168201915b5050505050908060020154908060030154908060040154908060050160009054906101000a900473ffffffffffffffffffffffffffffffffffffffff16908060050160149054906101000a900460ff16905087565b60015481565b6001548310610259576040517f08c379a000000000000000000000000000000000000000000000000000000000815260040161025090610ad3565b60405180910390fd5b60006102658383610669565b9050826000808681526020019081526020016000206003018190555081600080868152602001908152602001600020600401819055508060008086815260200190815260200160002060050160146101000a81548160ff0219169083151502179055507fc0ef05ad7b90347a9b2ea53e56c4487d173b0f9a4644ed41cf9e504b1c63932484826040516102f9929190610b79565b60405180910390a150505050565b61030f610683565b6001548210610353576040517f08c379a000000000000000000000000000000000000000000000000000000000815260040161034a90610ad3565b60405180910390fd5b6000808381526020019081526020016000206040518060e00160405290816000820154815260200160018201805461038a90610d30565b80601f01602080910402602001604051908101604052809291908181526020018280546103b690610d30565b80156104035780601f106103d857610100808354040283529160200191610403565b820191906000526020600020905b8154815290600101906020018083116103e657829003601f168201915b505050505081526020016002820154815260200160038201548152602001600482015481526020016005820160009054906101000a900473ffffffffffffffffffffffffffffffffffffffff1673ffffffffffffffffffffffffffffffffffffffff1673ffffffffffffffffffffffffffffffffffffffff1681526020016005820160149054906101000a900460ff1615151515815250509050919050565b6000821180156104b25750600081115b6104f1576040517f08c379a00000000000000000000000000000000000000000000000000000000081526004016104e890610af3565b60405180910390fd5b60006104fd8383610669565b90506040518060e0016040528060015481526020018681526020018581526020018481526020018381526020013373ffffffffffffffffffffffffffffffffffffffff16815260200182151581525060008060015481526020019081526020016000206000820151816000015560208201518160010190805190602001906105869291906106d8565b5060408201518160020155606082015181600301556080820151816004015560a08201518160050160006101000a81548173ffffffffffffffffffffffffffffffffffffffff021916908373ffffffffffffffffffffffffffffffffffffffff16021790555060c08201518160050160146101000a81548160ff0219169083151502179055509050507f86f24c09551a800c8d32b73ec82ec90f310aeed7c7f0c54b2a1598f2388da37860015433604051610642929190610b50565b60405180910390a16001600081548092919061065d90610d62565b91905055505050505050565b6000601e8310801561067b5750603282105b905092915050565b6040518060e001604052806000815260200160608152602001600081526020016000815260200160008152602001600073ffffffffffffffffffffffffffffffffffffffff1681526020016000151581525090565b8280546106e490610d30565b90600052602060002090601f016020900481019282610706576000855561074d565b82601f1061071f57805160ff191683800117855561074d565b8280016001018555821561074d579182015b8281111561074c578251825591602001919060010190610731565b5b50905061075a919061075e565b5090565b5b8082111561077757600081600090555060010161075f565b5090565b600061078e61078984610c49565b610c18565b9050828152602081018484840111156107a657600080fd5b6107b1848285610cee565b509392505050565b600082601f8301126107ca57600080fd5b81356107da84826020860161077b565b91505092915050565b6000813590506107f281610e49565b92915050565b6000806000806080858703121561080e57600080fd5b600085013567ffffffffffffffff81111561082857600080fd5b610834878288016107b9565b9450506020610845878288016107e3565b9350506040610856878288016107e3565b9250506060610867878288016107e3565b91505092959194509250565b60006020828403121561088557600080fd5b6000610893848285016107e3565b91505092915050565b6000806000606084860312156108b157600080fd5b60006108bf868287016107e3565b93505060206108d0868287016107e3565b92505060406108e1868287016107e3565b9150509250925092565b6108f481610ca6565b82525050565b61090381610ca6565b82525050565b61091281610cb8565b82525050565b61092181610cb8565b82525050565b600061093282610c79565b61093c8185610c84565b935061094c818560208601610cfd565b61095581610e38565b840191505092915050565b600061096b82610c79565b6109758185610c95565b9350610985818560208601610cfd565b61098e81610e38565b840191505092915050565b60006109a6601483610c95565b91507f426174636820646f6573206e6f742065786973740000000000000000000000006000830152602082019050919050565b60006109e6601383610c95565b91507f496e76616c69642073656e736f722064617461000000000000000000000000006000830152602082019050919050565b600060e083016000830151610a316000860182610ab5565b5060208301518482036020860152610a498282610927565b9150506040830151610a5e6040860182610ab5565b506060830151610a716060860182610ab5565b506080830151610a846080860182610ab5565b5060a0830151610a9760a08601826108eb565b5060c0830151610aaa60c0860182610909565b508091505092915050565b610abe81610ce4565b82525050565b610acd81610ce4565b82525050565b60006020820190508181036000830152610aec81610999565b9050919050565b60006020820190508181036000830152610b0c816109d9565b9050919050565b60006020820190508181036000830152610b2d8184610a19565b905092915050565b6000602082019050610b4a6000830184610ac4565b92915050565b6000604082019050610b656000830185610ac4565b610b7260208301846108fa565b9392505050565b6000604082019050610b8e6000830185610ac4565b610b9b6020830184610918565b9392505050565b600060e082019050610bb7600083018a610ac4565b8181036020830152610bc98189610960565b9050610bd86040830188610ac4565b610be56060830187610ac4565b610bf26080830186610ac4565b610bff60a08301856108fa565b610c0c60c0830184610918565b98975050505050505050565b6000604051905081810181811067ffffffffffffffff82111715610c3f57610c3e610e09565b5b8060405250919050565b600067ffffffffffffffff821115610c6457610c63610e09565b5b601f19601f8301169050602081019050919050565b600081519050919050565b600082825260208201905092915050565b600082825260208201905092915050565b6000610cb182610cc4565b9050919050565b60008115159050919050565b600073ffffffffffffffffffffffffffffffffffffffff82169050919050565b6000819050919050565b82818337600083830152505050565b60005b83811015610d1b578082015181840152602081019050610d00565b83811115610d2a576000848401525b50505050565b60006002820490506001821680610d4857607f821691505b60208210811415610d5c57610d5b610dda565b5b50919050565b6000610d6d82610ce4565b91507fffffffffffffffffffffffffffffffffffffffffffffffffffffffffffffffff821415610da057610d9f610dab565b5b600182019050919050565b7f4e487b7100000000000000000000000000000000000000000000000000000000600052601160045260246000fd5b7f4e487b7100000000000000000000000000000000000000000000000000000000600052602260045260246000fd5b7f4e487b7100000000000000000000000000000000000000000000000000000000600052604160045260246000fd5b6000601f19601f8301169050919050565b610e5281610ce4565b8114610e5d57600080fd5b5056fea2646970667358221220f92a2715acfc5f4c5fd1e0eac911790b1613f7a1ffde8b454ed7bd500ebef43064736f6c63430008000033",
  "immutableReferences": {},
  "source": "// SPDX-License-Identifier: MIT\r\npragma solidity >=0.4.22 <0.9.0;\r\n\r\ncontract GrainSafety {\r\n    struct GrainBatch {\r\n        uint256 batchId;\r\n        string grainType;\r\n        uint256 weight;\r\n        uint256 temperature;\r\n        uint256 humidity;\r\n        address farmer;\r\n        bool safetyCompliance;\r\n    }\r\n\r\n    mapping(uint256 => GrainBatch) public grainBatches;\r\n    uint256 public nextBatchId;\r\n\r\n    event NewBatchAdded(uint256 batchId, address farmer);\r\n    event ComplianceUpdated(uint256 batchId, bool safetyCompliance);\r\n\r\n    function addGrainBatch(string memory grainType, uint256 weight, uint256 temperature, uint256 humidity) public {\r\n        require(temperature > 0 && humidity > 0, \"Invalid sensor data\");\r\n        bool compliance = checkSafetyCompliance(temperature, humidity);\r\n        grainBatches[nextBatchId] = GrainBatch(nextBatchId, grainType, weight, temperature, humidity, msg.sender, compliance);\r\n        emit NewBatchAdded(nextBatchId, msg.sender);\r\n        nextBatchId++;\r\n    }\r\n\r\n    function checkSafetyCompliance(uint256 temperature, uint256 humidity) internal pure returns (bool) {\r\n        return (temperature < 30 && humidity < 50);\r\n    }\r\n\r\n    function updateCompliance(uint256 batchId, uint256 newTemperature, uint256 newHumidity) public {\r\n        require(batchId < nextBatchId, \"Batch does not exist\");\r\n        bool newCompliance = checkSafetyCompliance(newTemperature, newHumidity);\r\n        grainBatches[batchId].temperature = newTemperature;\r\n        grainBatches[batchId].humidity = newHumidity;\r\n        grainBatches[batchId].safetyCompliance = newCompliance;\r\n        emit ComplianceUpdated(batchId, newCompliance);\r\n    }\r\n\r\n    function getBatchDetails(uint256 batchId) public view returns (GrainBatch memory) {\r\n        require(batchId < nextBatchId, \"Batch does not exist\");\r\n        return grainBatches[batchId];\r\n    }\r\n}\r\n",
  "sourcePath": "C:\\Users\\mahizsk\\OneDrive\\Documents\\YAAR\\GRAIN\\contracts\\GrainSafety.sol",
  "compiler": {
    "name": "solc",
    "version": "0.8.0+commit.c7dfd78e.Emscripten.clang"
  },
  "schemaVersion": "3.4.16",
  "updatedAt": "2024-10-14T08:49:10.695Z",
  "networkType": "ethereum",
  "devdoc": {
    "kind": "dev",
    "methods": {},
    "version": 1
  },
  "userdoc": {
    "kind": "user",
    "methods": {},
    "version": 1
  }
}